{
  "contractName": "StudentInfo",
  "abi": [
    {
      "constant": true,
      "inputs": [
        {
          "internalType": "address",
          "name": "",
          "type": "address"
        }
      ],
      "name": "students",
      "outputs": [
        {
          "internalType": "string",
          "name": "name",
          "type": "string"
        },
        {
          "internalType": "uint256",
          "name": "rollno",
          "type": "uint256"
        },
        {
          "internalType": "uint256",
          "name": "percentage",
          "type": "uint256"
        }
      ],
      "payable": false,
      "stateMutability": "view",
      "type": "function"
    },
    {
      "constant": false,
      "inputs": [
        {
          "internalType": "string",
          "name": "_name",
          "type": "string"
        },
        {
          "internalType": "uint256",
          "name": "_rollno",
          "type": "uint256"
        },
        {
          "internalType": "uint256",
          "name": "_percentage",
          "type": "uint256"
        }
      ],
      "name": "registerStudent",
      "outputs": [],
      "payable": false,
      "stateMutability": "nonpayable",
      "type": "function"
    },
    {
      "constant": true,
      "inputs": [],
      "name": "getRecord",
      "outputs": [
        {
          "internalType": "string",
          "name": "",
          "type": "string"
        },
        {
          "internalType": "uint256",
          "name": "",
          "type": "uint256"
        },
        {
          "internalType": "uint256",
          "name": "",
          "type": "uint256"
        }
      ],
      "payable": false,
      "stateMutability": "view",
      "type": "function"
    },
    {
      "constant": false,
      "inputs": [
        {
          "internalType": "string",
          "name": "_newname",
          "type": "string"
        },
        {
          "internalType": "uint256",
          "name": "_newrollno",
          "type": "uint256"
        },
        {
          "internalType": "uint256",
          "name": "_newpercentage",
          "type": "uint256"
        }
      ],
      "name": "updateRecord",
      "outputs": [],
      "payable": false,
      "stateMutability": "nonpayable",
      "type": "function"
    },
    {
      "constant": false,
      "inputs": [],
      "name": "deleteRecord",
      "outputs": [],
      "payable": false,
      "stateMutability": "nonpayable",
      "type": "function"
    }
  ],
  "bytecode": "0x608060405234801561001057600080fd5b50610911806100206000396000f3fe608060405234801561001057600080fd5b50600436106100575760003560e01c806330bf31db1461005c57806365426a981461012b578063a6c807a914610135578063b0fdd05814610200578063f18ad6fb146102cf575b600080fd5b6101296004803603606081101561007257600080fd5b810190808035906020019064010000000081111561008f57600080fd5b8201836020820111156100a157600080fd5b803590602001918460018302840111640100000000831117156100c357600080fd5b91908080601f016020809104026020016040519081016040528093929190818152602001838380828437600081840152601f19601f8201169050808301925050505050505091929192908035906020019092919080359060200190929190505050610360565b005b6101336103f2565b005b6101776004803603602081101561014b57600080fd5b81019080803573ffffffffffffffffffffffffffffffffffffffff169060200190929190505050610455565b6040518080602001848152602001838152602001828103825285818151815260200191508051906020019080838360005b838110156101c35780820151818401526020810190506101a8565b50505050905090810190601f1680156101f05780820380516001836020036101000a031916815260200191505b5094505050505060405180910390f35b6102cd6004803603606081101561021657600080fd5b810190808035906020019064010000000081111561023357600080fd5b82018360208201111561024557600080fd5b8035906020019184600183028401116401000000008311171561026757600080fd5b91908080601f016020809104026020016040519081016040528093929190818152602001838380828437600081840152601f19601f8201169050808301925050505050505091929192908035906020019092919080359060200190929190505050610517565b005b6102d76105fe565b6040518080602001848152602001838152602001828103825285818151815260200191508051906020019080838360005b83811015610323578082015181840152602081019050610308565b50505050905090810190601f1680156103505780820380516001836020036101000a031916815260200191505b5094505050505060405180910390f35b6040518060600160405280848152602001838152602001828152506000803373ffffffffffffffffffffffffffffffffffffffff1673ffffffffffffffffffffffffffffffffffffffff16815260200190815260200160002060008201518160000190805190602001906103d592919061076f565b506020820151816001015560408201518160020155905050505050565b6000803373ffffffffffffffffffffffffffffffffffffffff1673ffffffffffffffffffffffffffffffffffffffff1681526020019081526020016000206000808201600061044191906107ef565b600182016000905560028201600090555050565b6000602052806000526040600020600091509050806000018054600181600116156101000203166002900480601f0160208091040260200160405190810160405280929190818152602001828054600181600116156101000203166002900480156105015780601f106104d657610100808354040283529160200191610501565b820191906000526020600020905b8154815290600101906020018083116104e457829003601f168201915b5050505050908060010154908060020154905083565b826000803373ffffffffffffffffffffffffffffffffffffffff1673ffffffffffffffffffffffffffffffffffffffff168152602001908152602001600020600001908051906020019061056c929190610837565b50816000803373ffffffffffffffffffffffffffffffffffffffff1673ffffffffffffffffffffffffffffffffffffffff16815260200190815260200160002060010181905550806000803373ffffffffffffffffffffffffffffffffffffffff1673ffffffffffffffffffffffffffffffffffffffff16815260200190815260200160002060020181905550505050565b60606000806000803373ffffffffffffffffffffffffffffffffffffffff1673ffffffffffffffffffffffffffffffffffffffff1681526020019081526020016000206000016000803373ffffffffffffffffffffffffffffffffffffffff1673ffffffffffffffffffffffffffffffffffffffff168152602001908152602001600020600101546000803373ffffffffffffffffffffffffffffffffffffffff1673ffffffffffffffffffffffffffffffffffffffff16815260200190815260200160002060020154828054600181600116156101000203166002900480601f01602080910402602001604051908101604052809291908181526020018280546001816001161561010002031660029004801561075d5780601f106107325761010080835404028352916020019161075d565b820191906000526020600020905b81548152906001019060200180831161074057829003601f168201915b50505050509250925092509250909192565b828054600181600116156101000203166002900490600052602060002090601f016020900481019282601f106107b057805160ff19168380011785556107de565b828001600101855582156107de579182015b828111156107dd5782518255916020019190600101906107c2565b5b5090506107eb91906108b7565b5090565b50805460018160011615610100020316600290046000825580601f106108155750610834565b601f01602090049060005260206000209081019061083391906108b7565b5b50565b828054600181600116156101000203166002900490600052602060002090601f016020900481019282601f1061087857805160ff19168380011785556108a6565b828001600101855582156108a6579182015b828111156108a557825182559160200191906001019061088a565b5b5090506108b391906108b7565b5090565b6108d991905b808211156108d55760008160009055506001016108bd565b5090565b9056fea265627a7a723158207b758f4347e2218d9ac373a872773f36a908d452776896e5ffa14508ec36b6f664736f6c63430005100032",
  "source": "pragma solidity >=0.5.16 <0.6.0;\n\ncontract StudentInfo{\n\n    struct Student{\n        string name;\n        uint rollno;\n        uint percentage;\n    }\n    // Student[] public students;\n\n    mapping(address => Student)public students;\n\n    function registerStudent(string memory _name, uint _rollno, uint _percentage)public{\n        students[msg.sender]=Student(_name,_rollno,_percentage);\n    }\n\n    function getRecord() public view returns(string memory , uint, uint ){\n        return(students[msg.sender].name,students[msg.sender].rollno,students[msg.sender].percentage);\n    }\n    \n    function updateRecord(string memory _newname,uint _newrollno, uint _newpercentage)public{\n\n            students[msg.sender].name=_newname;\n            students[msg.sender].rollno=_newrollno;\n            students[msg.sender].percentage=_newpercentage;\n    }\n  \n    function deleteRecord()public{\n         delete students[msg.sender];\n        \n\n    }\n   \n\n}",
  "sourcePath": "/home/anisha/starter_kit/src/contracts/Student.sol",
  "compiler": {
    "name": "solc",
    "version": "0.5.16+commit.9c3226ce.Emscripten.clang"
  },
  "schemaVersion": "3.4.2",
  "updatedAt": "2021-08-02T13:03:30.403Z",
  "devdoc": {
    "methods": {}
  },
  "userdoc": {
    "methods": {}
  }
}